{
  "contractName": "erc721",
  "abi": [
    {
      "inputs": [
        {
          "internalType": "string",
          "name": "_name",
          "type": "string"
        },
        {
          "internalType": "string",
          "name": "_symbol",
          "type": "string"
        }
      ],
      "stateMutability": "nonpayable",
      "type": "constructor"
    },
    {
      "anonymous": false,
      "inputs": [
        {
          "indexed": true,
          "internalType": "address",
          "name": "owner",
          "type": "address"
        },
        {
          "indexed": true,
          "internalType": "address",
          "name": "approved",
          "type": "address"
        },
        {
          "indexed": true,
          "internalType": "uint256",
          "name": "tokenId",
          "type": "uint256"
        }
      ],
      "name": "Approval",
      "type": "event"
    },
    {
      "anonymous": false,
      "inputs": [
        {
          "indexed": true,
          "internalType": "address",
          "name": "owner",
          "type": "address"
        },
        {
          "indexed": true,
          "internalType": "address",
          "name": "operator",
          "type": "address"
        },
        {
          "indexed": false,
          "internalType": "bool",
          "name": "approved",
          "type": "bool"
        }
      ],
      "name": "ApprovalForAll",
      "type": "event"
    },
    {
      "anonymous": false,
      "inputs": [
        {
          "indexed": true,
          "internalType": "address",
          "name": "from",
          "type": "address"
        },
        {
          "indexed": true,
          "internalType": "address",
          "name": "to",
          "type": "address"
        },
        {
          "indexed": true,
          "internalType": "uint256",
          "name": "tokenId",
          "type": "uint256"
        }
      ],
      "name": "Transfer",
      "type": "event"
    },
    {
      "inputs": [
        {
          "internalType": "address",
          "name": "to",
          "type": "address"
        },
        {
          "internalType": "uint256",
          "name": "tokenId",
          "type": "uint256"
        }
      ],
      "name": "approve",
      "outputs": [],
      "stateMutability": "nonpayable",
      "type": "function"
    },
    {
      "inputs": [
        {
          "internalType": "address",
          "name": "owner",
          "type": "address"
        }
      ],
      "name": "balanceOf",
      "outputs": [
        {
          "internalType": "uint256",
          "name": "",
          "type": "uint256"
        }
      ],
      "stateMutability": "view",
      "type": "function"
    },
    {
      "inputs": [
        {
          "internalType": "uint256",
          "name": "tokenId",
          "type": "uint256"
        }
      ],
      "name": "getApproved",
      "outputs": [
        {
          "internalType": "address",
          "name": "",
          "type": "address"
        }
      ],
      "stateMutability": "view",
      "type": "function"
    },
    {
      "inputs": [
        {
          "internalType": "address",
          "name": "owner",
          "type": "address"
        },
        {
          "internalType": "address",
          "name": "operator",
          "type": "address"
        }
      ],
      "name": "isApprovedForAll",
      "outputs": [
        {
          "internalType": "bool",
          "name": "",
          "type": "bool"
        }
      ],
      "stateMutability": "view",
      "type": "function"
    },
    {
      "inputs": [],
      "name": "name",
      "outputs": [
        {
          "internalType": "string",
          "name": "",
          "type": "string"
        }
      ],
      "stateMutability": "view",
      "type": "function"
    },
    {
      "inputs": [
        {
          "internalType": "uint256",
          "name": "tokenId",
          "type": "uint256"
        }
      ],
      "name": "ownerOf",
      "outputs": [
        {
          "internalType": "address",
          "name": "",
          "type": "address"
        }
      ],
      "stateMutability": "view",
      "type": "function"
    },
    {
      "inputs": [
        {
          "internalType": "address",
          "name": "from",
          "type": "address"
        },
        {
          "internalType": "address",
          "name": "to",
          "type": "address"
        },
        {
          "internalType": "uint256",
          "name": "tokenId",
          "type": "uint256"
        }
      ],
      "name": "safeTransferFrom",
      "outputs": [],
      "stateMutability": "nonpayable",
      "type": "function"
    },
    {
      "inputs": [
        {
          "internalType": "address",
          "name": "from",
          "type": "address"
        },
        {
          "internalType": "address",
          "name": "to",
          "type": "address"
        },
        {
          "internalType": "uint256",
          "name": "tokenId",
          "type": "uint256"
        },
        {
          "internalType": "bytes",
          "name": "data",
          "type": "bytes"
        }
      ],
      "name": "safeTransferFrom",
      "outputs": [],
      "stateMutability": "nonpayable",
      "type": "function"
    },
    {
      "inputs": [
        {
          "internalType": "address",
          "name": "operator",
          "type": "address"
        },
        {
          "internalType": "bool",
          "name": "approved",
          "type": "bool"
        }
      ],
      "name": "setApprovalForAll",
      "outputs": [],
      "stateMutability": "nonpayable",
      "type": "function"
    },
    {
      "inputs": [
        {
          "internalType": "bytes4",
          "name": "interfaceId",
          "type": "bytes4"
        }
      ],
      "name": "supportsInterface",
      "outputs": [
        {
          "internalType": "bool",
          "name": "",
          "type": "bool"
        }
      ],
      "stateMutability": "view",
      "type": "function"
    },
    {
      "inputs": [],
      "name": "symbol",
      "outputs": [
        {
          "internalType": "string",
          "name": "",
          "type": "string"
        }
      ],
      "stateMutability": "view",
      "type": "function"
    },
    {
      "inputs": [
        {
          "internalType": "uint256",
          "name": "tokenId",
          "type": "uint256"
        }
      ],
      "name": "tokenURI",
      "outputs": [
        {
          "internalType": "string",
          "name": "",
          "type": "string"
        }
      ],
      "stateMutability": "view",
      "type": "function"
    },
    {
      "inputs": [
        {
          "internalType": "address",
          "name": "from",
          "type": "address"
        },
        {
          "internalType": "address",
          "name": "to",
          "type": "address"
        },
        {
          "internalType": "uint256",
          "name": "tokenId",
          "type": "uint256"
        }
      ],
      "name": "transferFrom",
      "outputs": [],
      "stateMutability": "nonpayable",
      "type": "function"
    },
    {
      "inputs": [
        {
          "internalType": "address",
          "name": "_account",
          "type": "address"
        }
      ],
      "name": "sendNFTs",
      "outputs": [],
      "stateMutability": "nonpayable",
      "type": "function"
    }
  ],
  "bytecode": "0x60806040523480156200001157600080fd5b5060405162002abf38038062002abf8339818101604052810190620000379190620001fa565b818181600090816200004a9190620004ca565b5080600190816200005c9190620004ca565b5050505050620005b1565b6000604051905090565b600080fd5b600080fd5b600080fd5b600080fd5b6000601f19601f8301169050919050565b7f4e487b7100000000000000000000000000000000000000000000000000000000600052604160045260246000fd5b620000d08262000085565b810181811067ffffffffffffffff82111715620000f257620000f162000096565b5b80604052505050565b60006200010762000067565b9050620001158282620000c5565b919050565b600067ffffffffffffffff82111562000138576200013762000096565b5b620001438262000085565b9050602081019050919050565b60005b838110156200017057808201518184015260208101905062000153565b60008484015250505050565b6000620001936200018d846200011a565b620000fb565b905082815260208101848484011115620001b257620001b162000080565b5b620001bf84828562000150565b509392505050565b600082601f830112620001df57620001de6200007b565b5b8151620001f18482602086016200017c565b91505092915050565b6000806040838503121562000214576200021362000071565b5b600083015167ffffffffffffffff81111562000235576200023462000076565b5b6200024385828601620001c7565b925050602083015167ffffffffffffffff81111562000267576200026662000076565b5b6200027585828601620001c7565b9150509250929050565b600081519050919050565b7f4e487b7100000000000000000000000000000000000000000000000000000000600052602260045260246000fd5b60006002820490506001821680620002d257607f821691505b602082108103620002e857620002e76200028a565b5b50919050565b60008190508160005260206000209050919050565b60006020601f8301049050919050565b600082821b905092915050565b600060088302620003527fffffffffffffffffffffffffffffffffffffffffffffffffffffffffffffffff8262000313565b6200035e868362000313565b95508019841693508086168417925050509392505050565b6000819050919050565b6000819050919050565b6000620003ab620003a56200039f8462000376565b62000380565b62000376565b9050919050565b6000819050919050565b620003c7836200038a565b620003df620003d682620003b2565b84845462000320565b825550505050565b600090565b620003f6620003e7565b62000403818484620003bc565b505050565b5b818110156200042b576200041f600082620003ec565b60018101905062000409565b5050565b601f8211156200047a576200044481620002ee565b6200044f8462000303565b810160208510156200045f578190505b620004776200046e8562000303565b83018262000408565b50505b505050565b600082821c905092915050565b60006200049f600019846008026200047f565b1980831691505092915050565b6000620004ba83836200048c565b9150826002028217905092915050565b620004d5826200027f565b67ffffffffffffffff811115620004f157620004f062000096565b5b620004fd8254620002b9565b6200050a8282856200042f565b600060209050601f8311600181146200054257600084156200052d578287015190505b620005398582620004ac565b865550620005a9565b601f1984166200055286620002ee565b60005b828110156200057c5784890151825560018201915060208501945060208101905062000555565b868310156200059c578489015162000598601f8916826200048c565b8355505b6001600288020188555050505b505050505050565b6124fe80620005c16000396000f3fe608060405234801561001057600080fd5b50600436106100ea5760003560e01c80636352211e1161008c578063a22cb46511610066578063a22cb4651461025b578063b88d4fde14610277578063c87b56dd14610293578063e985e9c5146102c3576100ea565b80636352211e146101dd57806370a082311461020d57806395d89b411461023d576100ea565b8063095ea7b3116100c8578063095ea7b31461016d57806323b872dd1461018957806342842e0e146101a557806359526774146101c1576100ea565b806301ffc9a7146100ef57806306fdde031461011f578063081812fc1461013d575b600080fd5b6101096004803603810190610104919061168a565b6102f3565b60405161011691906116d2565b60405180910390f35b6101276103d5565b604051610134919061177d565b60405180910390f35b610157600480360381019061015291906117d5565b610467565b6040516101649190611843565b60405180910390f35b6101876004803603810190610182919061188a565b6104ad565b005b6101a3600480360381019061019e91906118ca565b6105c4565b005b6101bf60048036038101906101ba91906118ca565b610624565b005b6101db60048036038101906101d6919061191d565b610644565b005b6101f760048036038101906101f291906117d5565b61066a565b6040516102049190611843565b60405180910390f35b6102276004803603810190610222919061191d565b61071b565b6040516102349190611959565b60405180910390f35b6102456107d2565b604051610252919061177d565b60405180910390f35b610275600480360381019061027091906119a0565b610864565b005b610291600480360381019061028c9190611b15565b61087a565b005b6102ad60048036038101906102a891906117d5565b6108dc565b6040516102ba919061177d565b60405180910390f35b6102dd60048036038101906102d89190611b98565b610944565b6040516102ea91906116d2565b60405180910390f35b60007f80ac58cd000000000000000000000000000000000000000000000000000000007bffffffffffffffffffffffffffffffffffffffffffffffffffffffff1916827bffffffffffffffffffffffffffffffffffffffffffffffffffffffff191614806103be57507f5b5e139f000000000000000000000000000000000000000000000000000000007bffffffffffffffffffffffffffffffffffffffffffffffffffffffff1916827bffffffffffffffffffffffffffffffffffffffffffffffffffffffff1916145b806103ce57506103cd826109d8565b5b9050919050565b6060600080546103e490611c07565b80601f016020809104026020016040519081016040528092919081815260200182805461041090611c07565b801561045d5780601f106104325761010080835404028352916020019161045d565b820191906000526020600020905b81548152906001019060200180831161044057829003601f168201915b5050505050905090565b600061047282610a42565b6004600083815260200190815260200160002060009054906101000a900473ffffffffffffffffffffffffffffffffffffffff169050919050565b60006104b88261066a565b90508073ffffffffffffffffffffffffffffffffffffffff168373ffffffffffffffffffffffffffffffffffffffff1603610528576040517f08c379a000000000000000000000000000000000000000000000000000000000815260040161051f90611caa565b60405180910390fd5b8073ffffffffffffffffffffffffffffffffffffffff16610547610a8d565b73ffffffffffffffffffffffffffffffffffffffff161480610576575061057581610570610a8d565b610944565b5b6105b5576040517f08c379a00000000000000000000000000000000000000000000000000000000081526004016105ac90611d3c565b60405180910390fd5b6105bf8383610a95565b505050565b6105d56105cf610a8d565b82610b4e565b610614576040517f08c379a000000000000000000000000000000000000000000000000000000000815260040161060b90611dce565b60405180910390fd5b61061f838383610be3565b505050565b61063f8383836040518060200160405280600081525061087a565b505050565b61064e6006610e49565b600061065a6006610e5f565b90506106668282610e6d565b5050565b6000806002600084815260200190815260200160002060009054906101000a900473ffffffffffffffffffffffffffffffffffffffff169050600073ffffffffffffffffffffffffffffffffffffffff168173ffffffffffffffffffffffffffffffffffffffff1603610712576040517f08c379a000000000000000000000000000000000000000000000000000000000815260040161070990611e3a565b60405180910390fd5b80915050919050565b60008073ffffffffffffffffffffffffffffffffffffffff168273ffffffffffffffffffffffffffffffffffffffff160361078b576040517f08c379a000000000000000000000000000000000000000000000000000000000815260040161078290611ecc565b60405180910390fd5b600360008373ffffffffffffffffffffffffffffffffffffffff1673ffffffffffffffffffffffffffffffffffffffff168152602001908152602001600020549050919050565b6060600180546107e190611c07565b80601f016020809104026020016040519081016040528092919081815260200182805461080d90611c07565b801561085a5780601f1061082f5761010080835404028352916020019161085a565b820191906000526020600020905b81548152906001019060200180831161083d57829003601f168201915b5050505050905090565b61087661086f610a8d565b8383610e8b565b5050565b61088b610885610a8d565b83610b4e565b6108ca576040517f08c379a00000000000000000000000000000000000000000000000000000000081526004016108c190611dce565b60405180910390fd5b6108d684848484610ff7565b50505050565b60606108e782610a42565b60006108f1611053565b90506000815111610911576040518060200160405280600081525061093c565b8061091b8461106a565b60405160200161092c929190611f28565b6040516020818303038152906040525b915050919050565b6000600560008473ffffffffffffffffffffffffffffffffffffffff1673ffffffffffffffffffffffffffffffffffffffff16815260200190815260200160002060008373ffffffffffffffffffffffffffffffffffffffff1673ffffffffffffffffffffffffffffffffffffffff16815260200190815260200160002060009054906101000a900460ff16905092915050565b60007f01ffc9a7000000000000000000000000000000000000000000000000000000007bffffffffffffffffffffffffffffffffffffffffffffffffffffffff1916827bffffffffffffffffffffffffffffffffffffffffffffffffffffffff1916149050919050565b610a4b816111ca565b610a8a576040517f08c379a0000000000000000000000000000000000000000000000000000000008152600401610a8190611e3a565b60405180910390fd5b50565b600033905090565b816004600083815260200190815260200160002060006101000a81548173ffffffffffffffffffffffffffffffffffffffff021916908373ffffffffffffffffffffffffffffffffffffffff160217905550808273ffffffffffffffffffffffffffffffffffffffff16610b088361066a565b73ffffffffffffffffffffffffffffffffffffffff167f8c5be1e5ebec7d5bd14f71427d1e84f3dd0314c0f7b2291e5b200ac8c7c3b92560405160405180910390a45050565b600080610b5a8361066a565b90508073ffffffffffffffffffffffffffffffffffffffff168473ffffffffffffffffffffffffffffffffffffffff161480610b9c5750610b9b8185610944565b5b80610bda57508373ffffffffffffffffffffffffffffffffffffffff16610bc284610467565b73ffffffffffffffffffffffffffffffffffffffff16145b91505092915050565b8273ffffffffffffffffffffffffffffffffffffffff16610c038261066a565b73ffffffffffffffffffffffffffffffffffffffff1614610c59576040517f08c379a0000000000000000000000000000000000000000000000000000000008152600401610c5090611fbe565b60405180910390fd5b600073ffffffffffffffffffffffffffffffffffffffff168273ffffffffffffffffffffffffffffffffffffffff1603610cc8576040517f08c379a0000000000000000000000000000000000000000000000000000000008152600401610cbf90612050565b60405180910390fd5b610cd3838383611236565b610cde600082610a95565b6001600360008573ffffffffffffffffffffffffffffffffffffffff1673ffffffffffffffffffffffffffffffffffffffff1681526020019081526020016000206000828254610d2e919061209f565b925050819055506001600360008473ffffffffffffffffffffffffffffffffffffffff1673ffffffffffffffffffffffffffffffffffffffff1681526020019081526020016000206000828254610d8591906120d3565b92505081905550816002600083815260200190815260200160002060006101000a81548173ffffffffffffffffffffffffffffffffffffffff021916908373ffffffffffffffffffffffffffffffffffffffff160217905550808273ffffffffffffffffffffffffffffffffffffffff168473ffffffffffffffffffffffffffffffffffffffff167fddf252ad1be2c89b69c2b068fc378daa952ba7f163c4a11628f55a4df523b3ef60405160405180910390a4610e4483838361123b565b505050565b6001816000016000828254019250508190555050565b600081600001549050919050565b610e87828260405180602001604052806000815250611240565b5050565b8173ffffffffffffffffffffffffffffffffffffffff168373ffffffffffffffffffffffffffffffffffffffff1603610ef9576040517f08c379a0000000000000000000000000000000000000000000000000000000008152600401610ef090612153565b60405180910390fd5b80600560008573ffffffffffffffffffffffffffffffffffffffff1673ffffffffffffffffffffffffffffffffffffffff16815260200190815260200160002060008473ffffffffffffffffffffffffffffffffffffffff1673ffffffffffffffffffffffffffffffffffffffff16815260200190815260200160002060006101000a81548160ff0219169083151502179055508173ffffffffffffffffffffffffffffffffffffffff168373ffffffffffffffffffffffffffffffffffffffff167f17307eab39ab6107e8899845ad3d59bd9653f200f220920489ca2b5937696c3183604051610fea91906116d2565b60405180910390a3505050565b611002848484610be3565b61100e8484848461129b565b61104d576040517f08c379a0000000000000000000000000000000000000000000000000000000008152600401611044906121e5565b60405180910390fd5b50505050565b606060405180602001604052806000815250905090565b6060600082036110b1576040518060400160405280600181526020017f300000000000000000000000000000000000000000000000000000000000000081525090506111c5565b600082905060005b600082146110e35780806110cc90612205565b915050600a826110dc919061227c565b91506110b9565b60008167ffffffffffffffff8111156110ff576110fe6119ea565b5b6040519080825280601f01601f1916602001820160405280156111315781602001600182028036833780820191505090505b5090505b600085146111be5760018261114a919061209f565b9150600a8561115991906122ad565b603061116591906120d3565b60f81b81838151811061117b5761117a6122de565b5b60200101907effffffffffffffffffffffffffffffffffffffffffffffffffffffffffffff1916908160001a905350600a856111b7919061227c565b9450611135565b8093505050505b919050565b60008073ffffffffffffffffffffffffffffffffffffffff166002600084815260200190815260200160002060009054906101000a900473ffffffffffffffffffffffffffffffffffffffff1673ffffffffffffffffffffffffffffffffffffffff1614159050919050565b505050565b505050565b61124a8383611422565b611257600084848461129b565b611296576040517f08c379a000000000000000000000000000000000000000000000000000000000815260040161128d906121e5565b60405180910390fd5b505050565b60006112bc8473ffffffffffffffffffffffffffffffffffffffff166115fb565b15611415578373ffffffffffffffffffffffffffffffffffffffff1663150b7a026112e5610a8d565b8786866040518563ffffffff1660e01b81526004016113079493929190612362565b6020604051808303816000875af192505050801561134357506040513d601f19601f8201168201806040525081019061134091906123c3565b60015b6113c5573d8060008114611373576040519150601f19603f3d011682016040523d82523d6000602084013e611378565b606091505b5060008151036113bd576040517f08c379a00000000000000000000000000000000000000000000000000000000081526004016113b4906121e5565b60405180910390fd5b805181602001fd5b63150b7a0260e01b7bffffffffffffffffffffffffffffffffffffffffffffffffffffffff1916817bffffffffffffffffffffffffffffffffffffffffffffffffffffffff19161491505061141a565b600190505b949350505050565b600073ffffffffffffffffffffffffffffffffffffffff168273ffffffffffffffffffffffffffffffffffffffff1603611491576040517f08c379a00000000000000000000000000000000000000000000000000000000081526004016114889061243c565b60405180910390fd5b61149a816111ca565b156114da576040517f08c379a00000000000000000000000000000000000000000000000000000000081526004016114d1906124a8565b60405180910390fd5b6114e660008383611236565b6001600360008473ffffffffffffffffffffffffffffffffffffffff1673ffffffffffffffffffffffffffffffffffffffff168152602001908152602001600020600082825461153691906120d3565b92505081905550816002600083815260200190815260200160002060006101000a81548173ffffffffffffffffffffffffffffffffffffffff021916908373ffffffffffffffffffffffffffffffffffffffff160217905550808273ffffffffffffffffffffffffffffffffffffffff16600073ffffffffffffffffffffffffffffffffffffffff167fddf252ad1be2c89b69c2b068fc378daa952ba7f163c4a11628f55a4df523b3ef60405160405180910390a46115f76000838361123b565b5050565b6000808273ffffffffffffffffffffffffffffffffffffffff163b119050919050565b6000604051905090565b600080fd5b600080fd5b60007fffffffff0000000000000000000000000000000000000000000000000000000082169050919050565b61166781611632565b811461167257600080fd5b50565b6000813590506116848161165e565b92915050565b6000602082840312156116a05761169f611628565b5b60006116ae84828501611675565b91505092915050565b60008115159050919050565b6116cc816116b7565b82525050565b60006020820190506116e760008301846116c3565b92915050565b600081519050919050565b600082825260208201905092915050565b60005b8381101561172757808201518184015260208101905061170c565b60008484015250505050565b6000601f19601f8301169050919050565b600061174f826116ed565b61175981856116f8565b9350611769818560208601611709565b61177281611733565b840191505092915050565b600060208201905081810360008301526117978184611744565b905092915050565b6000819050919050565b6117b28161179f565b81146117bd57600080fd5b50565b6000813590506117cf816117a9565b92915050565b6000602082840312156117eb576117ea611628565b5b60006117f9848285016117c0565b91505092915050565b600073ffffffffffffffffffffffffffffffffffffffff82169050919050565b600061182d82611802565b9050919050565b61183d81611822565b82525050565b60006020820190506118586000830184611834565b92915050565b61186781611822565b811461187257600080fd5b50565b6000813590506118848161185e565b92915050565b600080604083850312156118a1576118a0611628565b5b60006118af85828601611875565b92505060206118c0858286016117c0565b9150509250929050565b6000806000606084860312156118e3576118e2611628565b5b60006118f186828701611875565b935050602061190286828701611875565b9250506040611913868287016117c0565b9150509250925092565b60006020828403121561193357611932611628565b5b600061194184828501611875565b91505092915050565b6119538161179f565b82525050565b600060208201905061196e600083018461194a565b92915050565b61197d816116b7565b811461198857600080fd5b50565b60008135905061199a81611974565b92915050565b600080604083850312156119b7576119b6611628565b5b60006119c585828601611875565b92505060206119d68582860161198b565b9150509250929050565b600080fd5b600080fd5b7f4e487b7100000000000000000000000000000000000000000000000000000000600052604160045260246000fd5b611a2282611733565b810181811067ffffffffffffffff82111715611a4157611a406119ea565b5b80604052505050565b6000611a5461161e565b9050611a608282611a19565b919050565b600067ffffffffffffffff821115611a8057611a7f6119ea565b5b611a8982611733565b9050602081019050919050565b82818337600083830152505050565b6000611ab8611ab384611a65565b611a4a565b905082815260208101848484011115611ad457611ad36119e5565b5b611adf848285611a96565b509392505050565b600082601f830112611afc57611afb6119e0565b5b8135611b0c848260208601611aa5565b91505092915050565b60008060008060808587031215611b2f57611b2e611628565b5b6000611b3d87828801611875565b9450506020611b4e87828801611875565b9350506040611b5f878288016117c0565b925050606085013567ffffffffffffffff811115611b8057611b7f61162d565b5b611b8c87828801611ae7565b91505092959194509250565b60008060408385031215611baf57611bae611628565b5b6000611bbd85828601611875565b9250506020611bce85828601611875565b9150509250929050565b7f4e487b7100000000000000000000000000000000000000000000000000000000600052602260045260246000fd5b60006002820490506001821680611c1f57607f821691505b602082108103611c3257611c31611bd8565b5b50919050565b7f4552433732313a20617070726f76616c20746f2063757272656e74206f776e6560008201527f7200000000000000000000000000000000000000000000000000000000000000602082015250565b6000611c946021836116f8565b9150611c9f82611c38565b604082019050919050565b60006020820190508181036000830152611cc381611c87565b9050919050565b7f4552433732313a20617070726f76652063616c6c6572206973206e6f7420746f60008201527f6b656e206f776e6572206e6f7220617070726f76656420666f7220616c6c0000602082015250565b6000611d26603e836116f8565b9150611d3182611cca565b604082019050919050565b60006020820190508181036000830152611d5581611d19565b9050919050565b7f4552433732313a2063616c6c6572206973206e6f7420746f6b656e206f776e6560008201527f72206e6f7220617070726f766564000000000000000000000000000000000000602082015250565b6000611db8602e836116f8565b9150611dc382611d5c565b604082019050919050565b60006020820190508181036000830152611de781611dab565b9050919050565b7f4552433732313a20696e76616c696420746f6b656e2049440000000000000000600082015250565b6000611e246018836116f8565b9150611e2f82611dee565b602082019050919050565b60006020820190508181036000830152611e5381611e17565b9050919050565b7f4552433732313a2061646472657373207a65726f206973206e6f74206120766160008201527f6c6964206f776e65720000000000000000000000000000000000000000000000602082015250565b6000611eb66029836116f8565b9150611ec182611e5a565b604082019050919050565b60006020820190508181036000830152611ee581611ea9565b9050919050565b600081905092915050565b6000611f02826116ed565b611f0c8185611eec565b9350611f1c818560208601611709565b80840191505092915050565b6000611f348285611ef7565b9150611f408284611ef7565b91508190509392505050565b7f4552433732313a207472616e736665722066726f6d20696e636f72726563742060008201527f6f776e6572000000000000000000000000000000000000000000000000000000602082015250565b6000611fa86025836116f8565b9150611fb382611f4c565b604082019050919050565b60006020820190508181036000830152611fd781611f9b565b9050919050565b7f4552433732313a207472616e7366657220746f20746865207a65726f2061646460008201527f7265737300000000000000000000000000000000000000000000000000000000602082015250565b600061203a6024836116f8565b915061204582611fde565b604082019050919050565b600060208201905081810360008301526120698161202d565b9050919050565b7f4e487b7100000000000000000000000000000000000000000000000000000000600052601160045260246000fd5b60006120aa8261179f565b91506120b58361179f565b92508282039050818111156120cd576120cc612070565b5b92915050565b60006120de8261179f565b91506120e98361179f565b925082820190508082111561210157612100612070565b5b92915050565b7f4552433732313a20617070726f766520746f2063616c6c657200000000000000600082015250565b600061213d6019836116f8565b915061214882612107565b602082019050919050565b6000602082019050818103600083015261216c81612130565b9050919050565b7f4552433732313a207472616e7366657220746f206e6f6e20455243373231526560008201527f63656976657220696d706c656d656e7465720000000000000000000000000000602082015250565b60006121cf6032836116f8565b91506121da82612173565b604082019050919050565b600060208201905081810360008301526121fe816121c2565b9050919050565b60006122108261179f565b91507fffffffffffffffffffffffffffffffffffffffffffffffffffffffffffffffff820361224257612241612070565b5b600182019050919050565b7f4e487b7100000000000000000000000000000000000000000000000000000000600052601260045260246000fd5b60006122878261179f565b91506122928361179f565b9250826122a2576122a161224d565b5b828204905092915050565b60006122b88261179f565b91506122c38361179f565b9250826122d3576122d261224d565b5b828206905092915050565b7f4e487b7100000000000000000000000000000000000000000000000000000000600052603260045260246000fd5b600081519050919050565b600082825260208201905092915050565b60006123348261230d565b61233e8185612318565b935061234e818560208601611709565b61235781611733565b840191505092915050565b60006080820190506123776000830187611834565b6123846020830186611834565b612391604083018561194a565b81810360608301526123a38184612329565b905095945050505050565b6000815190506123bd8161165e565b92915050565b6000602082840312156123d9576123d8611628565b5b60006123e7848285016123ae565b91505092915050565b7f4552433732313a206d696e7420746f20746865207a65726f2061646472657373600082015250565b60006124266020836116f8565b9150612431826123f0565b602082019050919050565b6000602082019050818103600083015261245581612419565b9050919050565b7f4552433732313a20746f6b656e20616c7265616479206d696e74656400000000600082015250565b6000612492601c836116f8565b915061249d8261245c565b602082019050919050565b600060208201905081810360008301526124c181612485565b905091905056fea2646970667358221220cd3374582556f4644476c087833ec44f4801aab24dd96c68bd0e1edba16f2f7364736f6c63430008110033",
  "immutableReferences": {},
  "source": "//SPDX-License-Identifier: MIT\r\npragma solidity ^0.8.4;\r\n\r\nimport \"@openzeppelin/contracts/token/ERC721/ERC721.sol\";\r\nimport \"@openzeppelin/contracts/utils/Counters.sol\";\r\n\r\n/**\r\n*@title NFT ERC721\r\n*@author GEORGE PACHECO\r\n*@dev ERC721 TOKEN CREATION USING OPENZEPPELIN LIBRARY\r\n */\r\n\r\ncontract erc721 is ERC721 {\r\n\r\n    //counters for NFT IDs\r\n    using Counters for Counters.Counter;\r\n    Counters.Counter private _tokenIds;\r\n\r\n    //smart contract constructor\r\n    constructor (string memory _name, string memory _symbol) ERC721(_name,_symbol){}\r\n\r\n    //sending NFTs\r\n    function sendNFTs(address _account) public {\r\n        _tokenIds.increment(); \r\n        uint256 newItemId = _tokenIds.current(); //funtion of Counter smart contract\r\n        _safeMint(_account, newItemId);\r\n    }\r\n}",
  "sourcePath": "D:\\cursoSolidity\\TokenERC721\\contracts\\erc721.sol",
  "compiler": {
    "name": "solc",
    "version": "0.8.17+commit.8df45f5f.Emscripten.clang"
  },
  "schemaVersion": "3.4.10",
  "updatedAt": "2022-10-03T19:38:54.098Z",
  "devdoc": {
    "author": "GEORGE PACHECO",
    "details": "ERC721 TOKEN CREATION USING OPENZEPPELIN LIBRARY",
    "kind": "dev",
    "methods": {
      "approve(address,uint256)": {
        "details": "See {IERC721-approve}."
      },
      "balanceOf(address)": {
        "details": "See {IERC721-balanceOf}."
      },
      "getApproved(uint256)": {
        "details": "See {IERC721-getApproved}."
      },
      "isApprovedForAll(address,address)": {
        "details": "See {IERC721-isApprovedForAll}."
      },
      "name()": {
        "details": "See {IERC721Metadata-name}."
      },
      "ownerOf(uint256)": {
        "details": "See {IERC721-ownerOf}."
      },
      "safeTransferFrom(address,address,uint256)": {
        "details": "See {IERC721-safeTransferFrom}."
      },
      "safeTransferFrom(address,address,uint256,bytes)": {
        "details": "See {IERC721-safeTransferFrom}."
      },
      "setApprovalForAll(address,bool)": {
        "details": "See {IERC721-setApprovalForAll}."
      },
      "supportsInterface(bytes4)": {
        "details": "See {IERC165-supportsInterface}."
      },
      "symbol()": {
        "details": "See {IERC721Metadata-symbol}."
      },
      "tokenURI(uint256)": {
        "details": "See {IERC721Metadata-tokenURI}."
      },
      "transferFrom(address,address,uint256)": {
        "details": "See {IERC721-transferFrom}."
      }
    },
    "title": "NFT ERC721",
    "version": 1
  },
  "userdoc": {
    "kind": "user",
    "methods": {},
    "version": 1
  }
}